:0600000012C0FECFFDCF8F
:100006002AC028C0FACFF9CFF8CFF7CFF6CFF5CF71
:10001600F4CFF3CFF2CFF1CFF0CFEFCFEECFEDCFDE
:10002600F894EE27ECBBF1E0FBBFEBBFE5BF8DE03C
:10003600A2E0BB27ED938A95E9F780E094E0A0E67D
:10004600ED930197E9F7EFE5EDBFE4E0EEBFC0E61B
:10005600D1E002C018951895E8E0E7BBE0E0E8BB00
:10006600E4BBE5BBE1BBE2BBE2BDE9E6E5BDE0E042
:10007600E4BDEAE1E3BDE0ECE9BF7894FFCFFFCF52
:00000001FF
