:1000000012C0FECFFDCFFCCFFBCFFACF34C035C03E
:1000100024C0F6CFF5CFF4CFF3CFF2CFF1CFF0CFAE
:10002000EFCFEECFEDCFF894EE27ECBBF1E0FBBFC6
:10003000EBBFE5BF8DE0A2E0BB27ED938A95E9F722
:1000400080E094E0A0E6ED930197E9F7EFE5EDBFDE
:10005000E4E0EEBFC0E6D1E012C0AA93EA93EFB7A6
:10006000EA9374D0E8B3A0E8EA27E8BBE991EFBFD0
:10007000E991A9911895C69A1895C698189524974C
:10008000E0E0E883E983EA83EB83E2E3F0E060E029
:1000900070E0E0936801F093690160936A017093E6
:1000A0006B01A0E4BFE180E090E066D0DF01CB010E
:1000B000E8ECF0E060E070E07FD0ADD0A7D0EFE5F5
:1000C000F0EF60E070E047D0E0936001F0936101F1
:1000D000609362017093630194D0E15AFF406F4FC7
:1000E0007F4FE0936401F093650160936601709324
:1000F0006701E6ECE7BBE0E0E8BBE0E5EFBDE1E08F
:10010000EEBD24D0E0E0E7BDE6BDA0916001B09176
:1001100061018091620190916301E8E021D0EBBD23
:10012000E0916001EABDA0916401B0916501809108
:10013000660190916701E8E013D0E9BDE0916401A8
:10014000E8BDECE1E9BF7894FFCFFFCFE0EEEDBD75
:10015000E0ECECBD0895EA1BFB0B680B790B0895EE
:10016000EE230E2EFD01BC0131F076956795F795D3
:10017000E7950A94D1F708957A9F702D6B9F700DC3
:10018000F89F700DE99F700D6A9F602D710DFB9FA8
:10019000600D711DE89F600D711D8827FA9FF02D7D
:1001A000610D781FEB9FF00D611D781FEA9FE02D18
:1001B000F10D681F781F08953F934F935F930024BC
:1001C00011244427552730E2AA0FBB1F881F991F0F
:1001D000001C111C441F551F0E1A1F0A460B570BFB
:1001E00028F40E0E1F1E461F571F01C0A1603A952E
:1001F00059F7FD01BC01D001CA015F914F913F91B8
:100200000895E881F9816A817B810895A881B98187
:100210008A819B810895E883F9836A837B830895AB
:00000001FF
