:0E00000012C0FECFFDCFFCCFFBCF27C02AC021
:10000E0029C026C0F6CFF5CFF4CFF3CFF2CFF1CF84
:10001E00F0CFEFCFEECFEDCFF894EE27ECBBF1E0C3
:10002E00FBBFEBBFE5BF8DE0A2E0BB27ED938A954A
:10003E00E9F780E094E0A0E6ED930197E9F7EFE5AC
:10004E00EDBFE4E0EEBFC0E6D1E011C075D008C050
:10005E0073D006C0AA93EA93EFB7EA93E8B3A0E48D
:10006E00EA27E8BBE991EFBFE991A991189524978A
:10007E00E4E1F0E060E070E0E0936801F093690184
:10008E0060936A0170936B01A0E1B7E280E090E0AB
:10009E006BD0DF01CB01E8ECF0E060E070E084D0E3
:1000AE00B2D0ACD0E8E8F3E160E070E04CD0E09381
:1000BE006001F0936101609362017093630199D0C6
:1000CE00E857FC4E6F4F7F4FE0936401F09365014C
:1000DE006093660170936701E6EFE7BBE0E0E8BB73
:1000EE00E0E5EFBDEAE1EEBDE0E0EDBDECBDE7E23F
:1000FE00E7BDEFE0E6BDA0916001B0916101809196
:10010E00620190916301E8E023D0EBBDE0916001C4
:10011E00EABDA0916401B091650180916601909154
:10012E006701E8E015D0E9BDE0916401E8BDECE3BC
:10013E00E9BF7894FFCFFFCFAA93EA93EFB7EA9384
:10014E00E8B3A0E80895EA1BFB0B680B790B089542
:10015E00EE230E2EFD01BC0131F076956795F795D5
:10016E00E7950A94D1F708957A9F702D6B9F700DC5
:10017E00F89F700DE99F700D6A9F602D710DFB9FAA
:10018E00600D711DE89F600D711D8827FA9FF02D7F
:10019E00610D781FEB9FF00D611D781FEA9FE02D1A
:1001AE00F10D681F781F08953F934F935F930024BE
:1001BE0011244427552730E2AA0FBB1F881F991F11
:1001CE00001C111C441F551F0E1A1F0A460B570BFD
:1001DE0028F40E0E1F1E461F571F01C0A1603A9530
:1001EE0059F7FD01BC01D001CA015F914F913F91BA
:1001FE000895E881F9816A817B810895A881B9818A
:10020E008A819B810895E883F9836A837B830895AD
:00000001FF
